{
	"data": {
		"bytecode": {
			"linkReferences": {
				"contracts/SimpleCommit.sol": {
					"SimpleCommit": [
						{
							"length": 20,
							"start": 162
						},
						{
							"length": 20,
							"start": 1501
						},
						{
							"length": 20,
							"start": 2178
						},
						{
							"length": 20,
							"start": 2624
						}
					]
				}
			},
			"object": "60806040526000600860006101000a81548160ff0219169083600681111561002357fe5b02179055506000600860016101000a81548160ff0219169083151502179055506000600860026101000a81548160ff02191690831515021790555034801561006a57600080fd5b50604051610eaf380380610eaf8339818101604052602081101561008d57600080fd5b8101908080519060200190929190505050600073__$b79f670119de6dcaeb67580bbf674134e2$__623a471d9091836040518363ffffffff1660e01b8152600401808381526020018281526020019250505060006040518083038186803b1580156100f757600080fd5b505af415801561010b573d6000803e3d6000fd5b5050505061011d61019260201b60201c565b600a430160078190555033600460006101000a81548173ffffffffffffffffffffffffffffffffffffffff021916908373ffffffffffffffffffffffffffffffffffffffff1602179055506001600860006101000a81548160ff0219169083600681111561018757fe5b02179055505061019b565b34600681905550565b610d05806101aa6000396000f3fe608060405234801561001057600080fd5b506004361061004c5760003560e01c8063be71248a14610051578063ddea484f1461005b578063e04a7f1e146100b5578063fb9650901461010f575b600080fd5b61005961013d565b005b6100b36004803603604081101561007157600080fd5b810190808035906020019092919080357effffffffffffffffffffffffffffffffffffffffffffffffffffffffffffff191690602001909291905050506102a5565b005b61010d600480360360408110156100cb57600080fd5b810190808035906020019092919080357effffffffffffffffffffffffffffffffffffffffffffffffffffffffffffff1916906020019092919050505061054a565b005b61013b6004803603602081101561012557600080fd5b81019080803590602001909291905050506107ef565b005b6007544311156101545761014f61096b565b61027f565b6005600681111561016157fe5b600860009054906101000a900460ff16600681111561017c57fe5b141561020957600060028060010160009054906101000a900460f81b600060010160009054906101000a900460f81b1860f81c60000b816101b957fe5b079050600060f81b8160f81b7effffffffffffffffffffffffffffffffffffffffffffffffffffffffffffff191614156101fa576101f5610aa3565b610203565b610202610b19565b5b5061027e565b600061027d576040517f08c379a000000000000000000000000000000000000000000000000000000000815260040180806020018281038252601f8152602001807f4f206a6f676f206ec3a36f20706f6465207365722066696e616c697a61646f0081525060200191505060405180910390fd5b5b5b6006600860006101000a81548160ff0219169083600681111561029e57fe5b0217905550565b600560009054906101000a900473ffffffffffffffffffffffffffffffffffffffff1673ffffffffffffffffffffffffffffffffffffffff163373ffffffffffffffffffffffffffffffffffffffff161461034b576040517f08c379a000000000000000000000000000000000000000000000000000000000815260040180806020018281038252602a815260200180610c80602a913960400191505060405180910390fd5b6002600681111561035857fe5b600860009054906101000a900460ff16600681111561037357fe5b14806103bd57506003600681111561038757fe5b600860009054906101000a900460ff1660068111156103a257fe5b1480156103bc5750600860029054906101000a900460ff16155b5b61042f576040517f08c379a00000000000000000000000000000000000000000000000000000000081526004018080602001828103825260208152602001807f5365752076616c6f72206ec3a36f20706f64652073657220726576656c61646f81525060200191505060405180910390fd5b600273__$b79f670119de6dcaeb67580bbf674134e2$__63ec01d198909184846040518463ffffffff1660e01b815260040180848152602001838152602001827effffffffffffffffffffffffffffffffffffffffffffffffffffffffffffff19167effffffffffffffffffffffffffffffffffffffffffffffffffffffffffffff19168152602001935050505060006040518083038186803b1580156104d557600080fd5b505af41580156104e9573d6000803e3d6000fd5b50505050600260068111156104fa57fe5b600860009054906101000a900460ff16600681111561051557fe5b14610521576005610524565b60045b600860006101000a81548160ff0219169083600681111561054157fe5b02179055505050565b600460009054906101000a900473ffffffffffffffffffffffffffffffffffffffff1673ffffffffffffffffffffffffffffffffffffffff163373ffffffffffffffffffffffffffffffffffffffff16146105f0576040517f08c379a0000000000000000000000000000000000000000000000000000000008152600401808060200182810382526027815260200180610caa6027913960400191505060405180910390fd5b600260068111156105fd57fe5b600860009054906101000a900460ff16600681111561061857fe5b148061066257506004600681111561062c57fe5b600860009054906101000a900460ff16600681111561064757fe5b1480156106615750600860019054906101000a900460ff16155b5b6106d4576040517f08c379a00000000000000000000000000000000000000000000000000000000081526004018080602001828103825260208152602001807f5365752076616c6f72206ec3a36f20706f64652073657220726576656c61646f81525060200191505060405180910390fd5b600073__$b79f670119de6dcaeb67580bbf674134e2$__63ec01d198909184846040518463ffffffff1660e01b815260040180848152602001838152602001827effffffffffffffffffffffffffffffffffffffffffffffffffffffffffffff19167effffffffffffffffffffffffffffffffffffffffffffffffffffffffffffff19168152602001935050505060006040518083038186803b15801561077a57600080fd5b505af415801561078e573d6000803e3d6000fd5b505050506002600681111561079f57fe5b600860009054906101000a900460ff1660068111156107ba57fe5b146107c65760056107c9565b60035b600860006101000a81548160ff021916908360068111156107e657fe5b02179055505050565b6107f7610b8f565b6001600681111561080457fe5b600860009054906101000a900460ff16600681111561081f57fe5b14610892576040517f08c379a000000000000000000000000000000000000000000000000000000000815260040180806020018281038252601c8152602001807f4f206a6f676f206ac3a120706f7373756920756d206a6f6761646f720000000081525060200191505060405180910390fd5b600273__$b79f670119de6dcaeb67580bbf674134e2$__623a471d9091836040518363ffffffff1660e01b8152600401808381526020018281526020019250505060006040518083038186803b1580156108eb57600080fd5b505af41580156108ff573d6000803e3d6000fd5b5050505033600560006101000a81548173ffffffffffffffffffffffffffffffffffffffff021916908373ffffffffffffffffffffffffffffffffffffffff1602179055506002600860006101000a81548160ff0219169083600681111561096357fe5b021790555050565b6005600681111561097857fe5b600860009054906101000a900460ff16600681111561099357fe5b1415610a2057600060028060010160009054906101000a900460f81b600060010160009054906101000a900460f81b1860f81c60000b816109d057fe5b079050600060f81b8160f81b7effffffffffffffffffffffffffffffffffffffffffffffffffffffffffffff19161415610a1157610a0c610aa3565b610a1a565b610a19610b19565b5b50610aa1565b60046006811115610a2d57fe5b600860009054906101000a900460ff166006811115610a4857fe5b1415610a5b57610a56610b19565b610aa0565b60036006811115610a6857fe5b600860009054906101000a900460ff166006811115610a8357fe5b1415610a9657610a91610aa3565b610a9f565b610a9e610c09565b5b5b5b565b6000610b17576040517f08c379a00000000000000000000000000000000000000000000000000000000081526004018080602001828103825260138152602001807f446f6e6f20666f69206f2076656e6365646f720000000000000000000000000081525060200191505060405180910390fd5b565b6000610b8d576040517f08c379a00000000000000000000000000000000000000000000000000000000081526004018080602001828103825260168152602001807f4a6f6761646f7220666f69206f2076656e6365646f720000000000000000000081525060200191505060405180910390fd5b565b600654341015610c07576040517f08c379a000000000000000000000000000000000000000000000000000000000815260040180806020018281038252601e8152602001807f56616c6f72206d61696f7220646f20717565206f2064612061706f737461000081525060200191505060405180910390fd5b565b6000610c7d576040517f08c379a00000000000000000000000000000000000000000000000000000000081526004018080602001828103825260128152602001807f44696e686569726f206465766f6c7669646f000000000000000000000000000081525060200191505060405180910390fd5b56fe536f6d656e746f206f206a6f6761646f7220706f6465206368616d617220657374612066756e63616f21536f6d656e746f206f20646f6e6f20706f6465206368616d617220657374612066756e63616f21a265627a7a72315820515a81b012398d43664a2a6e8c338329998d362e36f6664041d2d08ad716ff0b64736f6c63430005110032",
			"opcodes": "PUSH1 0x80 PUSH1 0x40 MSTORE PUSH1 0x0 PUSH1 0x8 PUSH1 0x0 PUSH2 0x100 EXP DUP2 SLOAD DUP2 PUSH1 0xFF MUL NOT AND SWAP1 DUP4 PUSH1 0x6 DUP2 GT ISZERO PUSH2 0x23 JUMPI INVALID JUMPDEST MUL OR SWAP1 SSTORE POP PUSH1 0x0 PUSH1 0x8 PUSH1 0x1 PUSH2 0x100 EXP DUP2 SLOAD DUP2 PUSH1 0xFF MUL NOT AND SWAP1 DUP4 ISZERO ISZERO MUL OR SWAP1 SSTORE POP PUSH1 0x0 PUSH1 0x8 PUSH1 0x2 PUSH2 0x100 EXP DUP2 SLOAD DUP2 PUSH1 0xFF MUL NOT AND SWAP1 DUP4 ISZERO ISZERO MUL OR SWAP1 SSTORE POP CALLVALUE DUP1 ISZERO PUSH2 0x6A JUMPI PUSH1 0x0 DUP1 REVERT JUMPDEST POP PUSH1 0x40 MLOAD PUSH2 0xEAF CODESIZE SUB DUP1 PUSH2 0xEAF DUP4 CODECOPY DUP2 DUP2 ADD PUSH1 0x40 MSTORE PUSH1 0x20 DUP2 LT ISZERO PUSH2 0x8D JUMPI PUSH1 0x0 DUP1 REVERT JUMPDEST DUP2 ADD SWAP1 DUP1 DUP1 MLOAD SWAP1 PUSH1 0x20 ADD SWAP1 SWAP3 SWAP2 SWAP1 POP POP POP PUSH1 0x0 PUSH20 0x0 PUSH3 0x3A471D SWAP1 SWAP2 DUP4 PUSH1 0x40 MLOAD DUP4 PUSH4 0xFFFFFFFF AND PUSH1 0xE0 SHL DUP2 MSTORE PUSH1 0x4 ADD DUP1 DUP4 DUP2 MSTORE PUSH1 0x20 ADD DUP3 DUP2 MSTORE PUSH1 0x20 ADD SWAP3 POP POP POP PUSH1 0x0 PUSH1 0x40 MLOAD DUP1 DUP4 SUB DUP2 DUP7 DUP1 EXTCODESIZE ISZERO DUP1 ISZERO PUSH2 0xF7 JUMPI PUSH1 0x0 DUP1 REVERT JUMPDEST POP GAS DELEGATECALL ISZERO DUP1 ISZERO PUSH2 0x10B JUMPI RETURNDATASIZE PUSH1 0x0 DUP1 RETURNDATACOPY RETURNDATASIZE PUSH1 0x0 REVERT JUMPDEST POP POP POP POP PUSH2 0x11D PUSH2 0x192 PUSH1 0x20 SHL PUSH1 0x20 SHR JUMP JUMPDEST PUSH1 0xA NUMBER ADD PUSH1 0x7 DUP2 SWAP1 SSTORE POP CALLER PUSH1 0x4 PUSH1 0x0 PUSH2 0x100 EXP DUP2 SLOAD DUP2 PUSH20 0xFFFFFFFFFFFFFFFFFFFFFFFFFFFFFFFFFFFFFFFF MUL NOT AND SWAP1 DUP4 PUSH20 0xFFFFFFFFFFFFFFFFFFFFFFFFFFFFFFFFFFFFFFFF AND MUL OR SWAP1 SSTORE POP PUSH1 0x1 PUSH1 0x8 PUSH1 0x0 PUSH2 0x100 EXP DUP2 SLOAD DUP2 PUSH1 0xFF MUL NOT AND SWAP1 DUP4 PUSH1 0x6 DUP2 GT ISZERO PUSH2 0x187 JUMPI INVALID JUMPDEST MUL OR SWAP1 SSTORE POP POP PUSH2 0x19B JUMP JUMPDEST CALLVALUE PUSH1 0x6 DUP2 SWAP1 SSTORE POP JUMP JUMPDEST PUSH2 0xD05 DUP1 PUSH2 0x1AA PUSH1 0x0 CODECOPY PUSH1 0x0 RETURN INVALID PUSH1 0x80 PUSH1 0x40 MSTORE CALLVALUE DUP1 ISZERO PUSH2 0x10 JUMPI PUSH1 0x0 DUP1 REVERT JUMPDEST POP PUSH1 0x4 CALLDATASIZE LT PUSH2 0x4C JUMPI PUSH1 0x0 CALLDATALOAD PUSH1 0xE0 SHR DUP1 PUSH4 0xBE71248A EQ PUSH2 0x51 JUMPI DUP1 PUSH4 0xDDEA484F EQ PUSH2 0x5B JUMPI DUP1 PUSH4 0xE04A7F1E EQ PUSH2 0xB5 JUMPI DUP1 PUSH4 0xFB965090 EQ PUSH2 0x10F JUMPI JUMPDEST PUSH1 0x0 DUP1 REVERT JUMPDEST PUSH2 0x59 PUSH2 0x13D JUMP JUMPDEST STOP JUMPDEST PUSH2 0xB3 PUSH1 0x4 DUP1 CALLDATASIZE SUB PUSH1 0x40 DUP2 LT ISZERO PUSH2 0x71 JUMPI PUSH1 0x0 DUP1 REVERT JUMPDEST DUP2 ADD SWAP1 DUP1 DUP1 CALLDATALOAD SWAP1 PUSH1 0x20 ADD SWAP1 SWAP3 SWAP2 SWAP1 DUP1 CALLDATALOAD PUSH31 0xFFFFFFFFFFFFFFFFFFFFFFFFFFFFFFFFFFFFFFFFFFFFFFFFFFFFFFFFFFFFFF NOT AND SWAP1 PUSH1 0x20 ADD SWAP1 SWAP3 SWAP2 SWAP1 POP POP POP PUSH2 0x2A5 JUMP JUMPDEST STOP JUMPDEST PUSH2 0x10D PUSH1 0x4 DUP1 CALLDATASIZE SUB PUSH1 0x40 DUP2 LT ISZERO PUSH2 0xCB JUMPI PUSH1 0x0 DUP1 REVERT JUMPDEST DUP2 ADD SWAP1 DUP1 DUP1 CALLDATALOAD SWAP1 PUSH1 0x20 ADD SWAP1 SWAP3 SWAP2 SWAP1 DUP1 CALLDATALOAD PUSH31 0xFFFFFFFFFFFFFFFFFFFFFFFFFFFFFFFFFFFFFFFFFFFFFFFFFFFFFFFFFFFFFF NOT AND SWAP1 PUSH1 0x20 ADD SWAP1 SWAP3 SWAP2 SWAP1 POP POP POP PUSH2 0x54A JUMP JUMPDEST STOP JUMPDEST PUSH2 0x13B PUSH1 0x4 DUP1 CALLDATASIZE SUB PUSH1 0x20 DUP2 LT ISZERO PUSH2 0x125 JUMPI PUSH1 0x0 DUP1 REVERT JUMPDEST DUP2 ADD SWAP1 DUP1 DUP1 CALLDATALOAD SWAP1 PUSH1 0x20 ADD SWAP1 SWAP3 SWAP2 SWAP1 POP POP POP PUSH2 0x7EF JUMP JUMPDEST STOP JUMPDEST PUSH1 0x7 SLOAD NUMBER GT ISZERO PUSH2 0x154 JUMPI PUSH2 0x14F PUSH2 0x96B JUMP JUMPDEST PUSH2 0x27F JUMP JUMPDEST PUSH1 0x5 PUSH1 0x6 DUP2 GT ISZERO PUSH2 0x161 JUMPI INVALID JUMPDEST PUSH1 0x8 PUSH1 0x0 SWAP1 SLOAD SWAP1 PUSH2 0x100 EXP SWAP1 DIV PUSH1 0xFF AND PUSH1 0x6 DUP2 GT ISZERO PUSH2 0x17C JUMPI INVALID JUMPDEST EQ ISZERO PUSH2 0x209 JUMPI PUSH1 0x0 PUSH1 0x2 DUP1 PUSH1 0x1 ADD PUSH1 0x0 SWAP1 SLOAD SWAP1 PUSH2 0x100 EXP SWAP1 DIV PUSH1 0xF8 SHL PUSH1 0x0 PUSH1 0x1 ADD PUSH1 0x0 SWAP1 SLOAD SWAP1 PUSH2 0x100 EXP SWAP1 DIV PUSH1 0xF8 SHL XOR PUSH1 0xF8 SHR PUSH1 0x0 SIGNEXTEND DUP2 PUSH2 0x1B9 JUMPI INVALID JUMPDEST SMOD SWAP1 POP PUSH1 0x0 PUSH1 0xF8 SHL DUP2 PUSH1 0xF8 SHL PUSH31 0xFFFFFFFFFFFFFFFFFFFFFFFFFFFFFFFFFFFFFFFFFFFFFFFFFFFFFFFFFFFFFF NOT AND EQ ISZERO PUSH2 0x1FA JUMPI PUSH2 0x1F5 PUSH2 0xAA3 JUMP JUMPDEST PUSH2 0x203 JUMP JUMPDEST PUSH2 0x202 PUSH2 0xB19 JUMP JUMPDEST JUMPDEST POP PUSH2 0x27E JUMP JUMPDEST PUSH1 0x0 PUSH2 0x27D JUMPI PUSH1 0x40 MLOAD PUSH32 0x8C379A000000000000000000000000000000000000000000000000000000000 DUP2 MSTORE PUSH1 0x4 ADD DUP1 DUP1 PUSH1 0x20 ADD DUP3 DUP2 SUB DUP3 MSTORE PUSH1 0x1F DUP2 MSTORE PUSH1 0x20 ADD DUP1 PUSH32 0x4F206A6F676F206EC3A36F20706F6465207365722066696E616C697A61646F00 DUP2 MSTORE POP PUSH1 0x20 ADD SWAP2 POP POP PUSH1 0x40 MLOAD DUP1 SWAP2 SUB SWAP1 REVERT JUMPDEST JUMPDEST JUMPDEST PUSH1 0x6 PUSH1 0x8 PUSH1 0x0 PUSH2 0x100 EXP DUP2 SLOAD DUP2 PUSH1 0xFF MUL NOT AND SWAP1 DUP4 PUSH1 0x6 DUP2 GT ISZERO PUSH2 0x29E JUMPI INVALID JUMPDEST MUL OR SWAP1 SSTORE POP JUMP JUMPDEST PUSH1 0x5 PUSH1 0x0 SWAP1 SLOAD SWAP1 PUSH2 0x100 EXP SWAP1 DIV PUSH20 0xFFFFFFFFFFFFFFFFFFFFFFFFFFFFFFFFFFFFFFFF AND PUSH20 0xFFFFFFFFFFFFFFFFFFFFFFFFFFFFFFFFFFFFFFFF AND CALLER PUSH20 0xFFFFFFFFFFFFFFFFFFFFFFFFFFFFFFFFFFFFFFFF AND EQ PUSH2 0x34B JUMPI PUSH1 0x40 MLOAD PUSH32 0x8C379A000000000000000000000000000000000000000000000000000000000 DUP2 MSTORE PUSH1 0x4 ADD DUP1 DUP1 PUSH1 0x20 ADD DUP3 DUP2 SUB DUP3 MSTORE PUSH1 0x2A DUP2 MSTORE PUSH1 0x20 ADD DUP1 PUSH2 0xC80 PUSH1 0x2A SWAP2 CODECOPY PUSH1 0x40 ADD SWAP2 POP POP PUSH1 0x40 MLOAD DUP1 SWAP2 SUB SWAP1 REVERT JUMPDEST PUSH1 0x2 PUSH1 0x6 DUP2 GT ISZERO PUSH2 0x358 JUMPI INVALID JUMPDEST PUSH1 0x8 PUSH1 0x0 SWAP1 SLOAD SWAP1 PUSH2 0x100 EXP SWAP1 DIV PUSH1 0xFF AND PUSH1 0x6 DUP2 GT ISZERO PUSH2 0x373 JUMPI INVALID JUMPDEST EQ DUP1 PUSH2 0x3BD JUMPI POP PUSH1 0x3 PUSH1 0x6 DUP2 GT ISZERO PUSH2 0x387 JUMPI INVALID JUMPDEST PUSH1 0x8 PUSH1 0x0 SWAP1 SLOAD SWAP1 PUSH2 0x100 EXP SWAP1 DIV PUSH1 0xFF AND PUSH1 0x6 DUP2 GT ISZERO PUSH2 0x3A2 JUMPI INVALID JUMPDEST EQ DUP1 ISZERO PUSH2 0x3BC JUMPI POP PUSH1 0x8 PUSH1 0x2 SWAP1 SLOAD SWAP1 PUSH2 0x100 EXP SWAP1 DIV PUSH1 0xFF AND ISZERO JUMPDEST JUMPDEST PUSH2 0x42F JUMPI PUSH1 0x40 MLOAD PUSH32 0x8C379A000000000000000000000000000000000000000000000000000000000 DUP2 MSTORE PUSH1 0x4 ADD DUP1 DUP1 PUSH1 0x20 ADD DUP3 DUP2 SUB DUP3 MSTORE PUSH1 0x20 DUP2 MSTORE PUSH1 0x20 ADD DUP1 PUSH32 0x5365752076616C6F72206EC3A36F20706F64652073657220726576656C61646F DUP2 MSTORE POP PUSH1 0x20 ADD SWAP2 POP POP PUSH1 0x40 MLOAD DUP1 SWAP2 SUB SWAP1 REVERT JUMPDEST PUSH1 0x2 PUSH20 0x0 PUSH4 0xEC01D198 SWAP1 SWAP2 DUP5 DUP5 PUSH1 0x40 MLOAD DUP5 PUSH4 0xFFFFFFFF AND PUSH1 0xE0 SHL DUP2 MSTORE PUSH1 0x4 ADD DUP1 DUP5 DUP2 MSTORE PUSH1 0x20 ADD DUP4 DUP2 MSTORE PUSH1 0x20 ADD DUP3 PUSH31 0xFFFFFFFFFFFFFFFFFFFFFFFFFFFFFFFFFFFFFFFFFFFFFFFFFFFFFFFFFFFFFF NOT AND PUSH31 0xFFFFFFFFFFFFFFFFFFFFFFFFFFFFFFFFFFFFFFFFFFFFFFFFFFFFFFFFFFFFFF NOT AND DUP2 MSTORE PUSH1 0x20 ADD SWAP4 POP POP POP POP PUSH1 0x0 PUSH1 0x40 MLOAD DUP1 DUP4 SUB DUP2 DUP7 DUP1 EXTCODESIZE ISZERO DUP1 ISZERO PUSH2 0x4D5 JUMPI PUSH1 0x0 DUP1 REVERT JUMPDEST POP GAS DELEGATECALL ISZERO DUP1 ISZERO PUSH2 0x4E9 JUMPI RETURNDATASIZE PUSH1 0x0 DUP1 RETURNDATACOPY RETURNDATASIZE PUSH1 0x0 REVERT JUMPDEST POP POP POP POP PUSH1 0x2 PUSH1 0x6 DUP2 GT ISZERO PUSH2 0x4FA JUMPI INVALID JUMPDEST PUSH1 0x8 PUSH1 0x0 SWAP1 SLOAD SWAP1 PUSH2 0x100 EXP SWAP1 DIV PUSH1 0xFF AND PUSH1 0x6 DUP2 GT ISZERO PUSH2 0x515 JUMPI INVALID JUMPDEST EQ PUSH2 0x521 JUMPI PUSH1 0x5 PUSH2 0x524 JUMP JUMPDEST PUSH1 0x4 JUMPDEST PUSH1 0x8 PUSH1 0x0 PUSH2 0x100 EXP DUP2 SLOAD DUP2 PUSH1 0xFF MUL NOT AND SWAP1 DUP4 PUSH1 0x6 DUP2 GT ISZERO PUSH2 0x541 JUMPI INVALID JUMPDEST MUL OR SWAP1 SSTORE POP POP POP JUMP JUMPDEST PUSH1 0x4 PUSH1 0x0 SWAP1 SLOAD SWAP1 PUSH2 0x100 EXP SWAP1 DIV PUSH20 0xFFFFFFFFFFFFFFFFFFFFFFFFFFFFFFFFFFFFFFFF AND PUSH20 0xFFFFFFFFFFFFFFFFFFFFFFFFFFFFFFFFFFFFFFFF AND CALLER PUSH20 0xFFFFFFFFFFFFFFFFFFFFFFFFFFFFFFFFFFFFFFFF AND EQ PUSH2 0x5F0 JUMPI PUSH1 0x40 MLOAD PUSH32 0x8C379A000000000000000000000000000000000000000000000000000000000 DUP2 MSTORE PUSH1 0x4 ADD DUP1 DUP1 PUSH1 0x20 ADD DUP3 DUP2 SUB DUP3 MSTORE PUSH1 0x27 DUP2 MSTORE PUSH1 0x20 ADD DUP1 PUSH2 0xCAA PUSH1 0x27 SWAP2 CODECOPY PUSH1 0x40 ADD SWAP2 POP POP PUSH1 0x40 MLOAD DUP1 SWAP2 SUB SWAP1 REVERT JUMPDEST PUSH1 0x2 PUSH1 0x6 DUP2 GT ISZERO PUSH2 0x5FD JUMPI INVALID JUMPDEST PUSH1 0x8 PUSH1 0x0 SWAP1 SLOAD SWAP1 PUSH2 0x100 EXP SWAP1 DIV PUSH1 0xFF AND PUSH1 0x6 DUP2 GT ISZERO PUSH2 0x618 JUMPI INVALID JUMPDEST EQ DUP1 PUSH2 0x662 JUMPI POP PUSH1 0x4 PUSH1 0x6 DUP2 GT ISZERO PUSH2 0x62C JUMPI INVALID JUMPDEST PUSH1 0x8 PUSH1 0x0 SWAP1 SLOAD SWAP1 PUSH2 0x100 EXP SWAP1 DIV PUSH1 0xFF AND PUSH1 0x6 DUP2 GT ISZERO PUSH2 0x647 JUMPI INVALID JUMPDEST EQ DUP1 ISZERO PUSH2 0x661 JUMPI POP PUSH1 0x8 PUSH1 0x1 SWAP1 SLOAD SWAP1 PUSH2 0x100 EXP SWAP1 DIV PUSH1 0xFF AND ISZERO JUMPDEST JUMPDEST PUSH2 0x6D4 JUMPI PUSH1 0x40 MLOAD PUSH32 0x8C379A000000000000000000000000000000000000000000000000000000000 DUP2 MSTORE PUSH1 0x4 ADD DUP1 DUP1 PUSH1 0x20 ADD DUP3 DUP2 SUB DUP3 MSTORE PUSH1 0x20 DUP2 MSTORE PUSH1 0x20 ADD DUP1 PUSH32 0x5365752076616C6F72206EC3A36F20706F64652073657220726576656C61646F DUP2 MSTORE POP PUSH1 0x20 ADD SWAP2 POP POP PUSH1 0x40 MLOAD DUP1 SWAP2 SUB SWAP1 REVERT JUMPDEST PUSH1 0x0 PUSH20 0x0 PUSH4 0xEC01D198 SWAP1 SWAP2 DUP5 DUP5 PUSH1 0x40 MLOAD DUP5 PUSH4 0xFFFFFFFF AND PUSH1 0xE0 SHL DUP2 MSTORE PUSH1 0x4 ADD DUP1 DUP5 DUP2 MSTORE PUSH1 0x20 ADD DUP4 DUP2 MSTORE PUSH1 0x20 ADD DUP3 PUSH31 0xFFFFFFFFFFFFFFFFFFFFFFFFFFFFFFFFFFFFFFFFFFFFFFFFFFFFFFFFFFFFFF NOT AND PUSH31 0xFFFFFFFFFFFFFFFFFFFFFFFFFFFFFFFFFFFFFFFFFFFFFFFFFFFFFFFFFFFFFF NOT AND DUP2 MSTORE PUSH1 0x20 ADD SWAP4 POP POP POP POP PUSH1 0x0 PUSH1 0x40 MLOAD DUP1 DUP4 SUB DUP2 DUP7 DUP1 EXTCODESIZE ISZERO DUP1 ISZERO PUSH2 0x77A JUMPI PUSH1 0x0 DUP1 REVERT JUMPDEST POP GAS DELEGATECALL ISZERO DUP1 ISZERO PUSH2 0x78E JUMPI RETURNDATASIZE PUSH1 0x0 DUP1 RETURNDATACOPY RETURNDATASIZE PUSH1 0x0 REVERT JUMPDEST POP POP POP POP PUSH1 0x2 PUSH1 0x6 DUP2 GT ISZERO PUSH2 0x79F JUMPI INVALID JUMPDEST PUSH1 0x8 PUSH1 0x0 SWAP1 SLOAD SWAP1 PUSH2 0x100 EXP SWAP1 DIV PUSH1 0xFF AND PUSH1 0x6 DUP2 GT ISZERO PUSH2 0x7BA JUMPI INVALID JUMPDEST EQ PUSH2 0x7C6 JUMPI PUSH1 0x5 PUSH2 0x7C9 JUMP JUMPDEST PUSH1 0x3 JUMPDEST PUSH1 0x8 PUSH1 0x0 PUSH2 0x100 EXP DUP2 SLOAD DUP2 PUSH1 0xFF MUL NOT AND SWAP1 DUP4 PUSH1 0x6 DUP2 GT ISZERO PUSH2 0x7E6 JUMPI INVALID JUMPDEST MUL OR SWAP1 SSTORE POP POP POP JUMP JUMPDEST PUSH2 0x7F7 PUSH2 0xB8F JUMP JUMPDEST PUSH1 0x1 PUSH1 0x6 DUP2 GT ISZERO PUSH2 0x804 JUMPI INVALID JUMPDEST PUSH1 0x8 PUSH1 0x0 SWAP1 SLOAD SWAP1 PUSH2 0x100 EXP SWAP1 DIV PUSH1 0xFF AND PUSH1 0x6 DUP2 GT ISZERO PUSH2 0x81F JUMPI INVALID JUMPDEST EQ PUSH2 0x892 JUMPI PUSH1 0x40 MLOAD PUSH32 0x8C379A000000000000000000000000000000000000000000000000000000000 DUP2 MSTORE PUSH1 0x4 ADD DUP1 DUP1 PUSH1 0x20 ADD DUP3 DUP2 SUB DUP3 MSTORE PUSH1 0x1C DUP2 MSTORE PUSH1 0x20 ADD DUP1 PUSH32 0x4F206A6F676F206AC3A120706F7373756920756D206A6F6761646F7200000000 DUP2 MSTORE POP PUSH1 0x20 ADD SWAP2 POP POP PUSH1 0x40 MLOAD DUP1 SWAP2 SUB SWAP1 REVERT JUMPDEST PUSH1 0x2 PUSH20 0x0 PUSH3 0x3A471D SWAP1 SWAP2 DUP4 PUSH1 0x40 MLOAD DUP4 PUSH4 0xFFFFFFFF AND PUSH1 0xE0 SHL DUP2 MSTORE PUSH1 0x4 ADD DUP1 DUP4 DUP2 MSTORE PUSH1 0x20 ADD DUP3 DUP2 MSTORE PUSH1 0x20 ADD SWAP3 POP POP POP PUSH1 0x0 PUSH1 0x40 MLOAD DUP1 DUP4 SUB DUP2 DUP7 DUP1 EXTCODESIZE ISZERO DUP1 ISZERO PUSH2 0x8EB JUMPI PUSH1 0x0 DUP1 REVERT JUMPDEST POP GAS DELEGATECALL ISZERO DUP1 ISZERO PUSH2 0x8FF JUMPI RETURNDATASIZE PUSH1 0x0 DUP1 RETURNDATACOPY RETURNDATASIZE PUSH1 0x0 REVERT JUMPDEST POP POP POP POP CALLER PUSH1 0x5 PUSH1 0x0 PUSH2 0x100 EXP DUP2 SLOAD DUP2 PUSH20 0xFFFFFFFFFFFFFFFFFFFFFFFFFFFFFFFFFFFFFFFF MUL NOT AND SWAP1 DUP4 PUSH20 0xFFFFFFFFFFFFFFFFFFFFFFFFFFFFFFFFFFFFFFFF AND MUL OR SWAP1 SSTORE POP PUSH1 0x2 PUSH1 0x8 PUSH1 0x0 PUSH2 0x100 EXP DUP2 SLOAD DUP2 PUSH1 0xFF MUL NOT AND SWAP1 DUP4 PUSH1 0x6 DUP2 GT ISZERO PUSH2 0x963 JUMPI INVALID JUMPDEST MUL OR SWAP1 SSTORE POP POP JUMP JUMPDEST PUSH1 0x5 PUSH1 0x6 DUP2 GT ISZERO PUSH2 0x978 JUMPI INVALID JUMPDEST PUSH1 0x8 PUSH1 0x0 SWAP1 SLOAD SWAP1 PUSH2 0x100 EXP SWAP1 DIV PUSH1 0xFF AND PUSH1 0x6 DUP2 GT ISZERO PUSH2 0x993 JUMPI INVALID JUMPDEST EQ ISZERO PUSH2 0xA20 JUMPI PUSH1 0x0 PUSH1 0x2 DUP1 PUSH1 0x1 ADD PUSH1 0x0 SWAP1 SLOAD SWAP1 PUSH2 0x100 EXP SWAP1 DIV PUSH1 0xF8 SHL PUSH1 0x0 PUSH1 0x1 ADD PUSH1 0x0 SWAP1 SLOAD SWAP1 PUSH2 0x100 EXP SWAP1 DIV PUSH1 0xF8 SHL XOR PUSH1 0xF8 SHR PUSH1 0x0 SIGNEXTEND DUP2 PUSH2 0x9D0 JUMPI INVALID JUMPDEST SMOD SWAP1 POP PUSH1 0x0 PUSH1 0xF8 SHL DUP2 PUSH1 0xF8 SHL PUSH31 0xFFFFFFFFFFFFFFFFFFFFFFFFFFFFFFFFFFFFFFFFFFFFFFFFFFFFFFFFFFFFFF NOT AND EQ ISZERO PUSH2 0xA11 JUMPI PUSH2 0xA0C PUSH2 0xAA3 JUMP JUMPDEST PUSH2 0xA1A JUMP JUMPDEST PUSH2 0xA19 PUSH2 0xB19 JUMP JUMPDEST JUMPDEST POP PUSH2 0xAA1 JUMP JUMPDEST PUSH1 0x4 PUSH1 0x6 DUP2 GT ISZERO PUSH2 0xA2D JUMPI INVALID JUMPDEST PUSH1 0x8 PUSH1 0x0 SWAP1 SLOAD SWAP1 PUSH2 0x100 EXP SWAP1 DIV PUSH1 0xFF AND PUSH1 0x6 DUP2 GT ISZERO PUSH2 0xA48 JUMPI INVALID JUMPDEST EQ ISZERO PUSH2 0xA5B JUMPI PUSH2 0xA56 PUSH2 0xB19 JUMP JUMPDEST PUSH2 0xAA0 JUMP JUMPDEST PUSH1 0x3 PUSH1 0x6 DUP2 GT ISZERO PUSH2 0xA68 JUMPI INVALID JUMPDEST PUSH1 0x8 PUSH1 0x0 SWAP1 SLOAD SWAP1 PUSH2 0x100 EXP SWAP1 DIV PUSH1 0xFF AND PUSH1 0x6 DUP2 GT ISZERO PUSH2 0xA83 JUMPI INVALID JUMPDEST EQ ISZERO PUSH2 0xA96 JUMPI PUSH2 0xA91 PUSH2 0xAA3 JUMP JUMPDEST PUSH2 0xA9F JUMP JUMPDEST PUSH2 0xA9E PUSH2 0xC09 JUMP JUMPDEST JUMPDEST JUMPDEST JUMPDEST JUMP JUMPDEST PUSH1 0x0 PUSH2 0xB17 JUMPI PUSH1 0x40 MLOAD PUSH32 0x8C379A000000000000000000000000000000000000000000000000000000000 DUP2 MSTORE PUSH1 0x4 ADD DUP1 DUP1 PUSH1 0x20 ADD DUP3 DUP2 SUB DUP3 MSTORE PUSH1 0x13 DUP2 MSTORE PUSH1 0x20 ADD DUP1 PUSH32 0x446F6E6F20666F69206F2076656E6365646F7200000000000000000000000000 DUP2 MSTORE POP PUSH1 0x20 ADD SWAP2 POP POP PUSH1 0x40 MLOAD DUP1 SWAP2 SUB SWAP1 REVERT JUMPDEST JUMP JUMPDEST PUSH1 0x0 PUSH2 0xB8D JUMPI PUSH1 0x40 MLOAD PUSH32 0x8C379A000000000000000000000000000000000000000000000000000000000 DUP2 MSTORE PUSH1 0x4 ADD DUP1 DUP1 PUSH1 0x20 ADD DUP3 DUP2 SUB DUP3 MSTORE PUSH1 0x16 DUP2 MSTORE PUSH1 0x20 ADD DUP1 PUSH32 0x4A6F6761646F7220666F69206F2076656E6365646F7200000000000000000000 DUP2 MSTORE POP PUSH1 0x20 ADD SWAP2 POP POP PUSH1 0x40 MLOAD DUP1 SWAP2 SUB SWAP1 REVERT JUMPDEST JUMP JUMPDEST PUSH1 0x6 SLOAD CALLVALUE LT ISZERO PUSH2 0xC07 JUMPI PUSH1 0x40 MLOAD PUSH32 0x8C379A000000000000000000000000000000000000000000000000000000000 DUP2 MSTORE PUSH1 0x4 ADD DUP1 DUP1 PUSH1 0x20 ADD DUP3 DUP2 SUB DUP3 MSTORE PUSH1 0x1E DUP2 MSTORE PUSH1 0x20 ADD DUP1 PUSH32 0x56616C6F72206D61696F7220646F20717565206F2064612061706F7374610000 DUP2 MSTORE POP PUSH1 0x20 ADD SWAP2 POP POP PUSH1 0x40 MLOAD DUP1 SWAP2 SUB SWAP1 REVERT JUMPDEST JUMP JUMPDEST PUSH1 0x0 PUSH2 0xC7D JUMPI PUSH1 0x40 MLOAD PUSH32 0x8C379A000000000000000000000000000000000000000000000000000000000 DUP2 MSTORE PUSH1 0x4 ADD DUP1 DUP1 PUSH1 0x20 ADD DUP3 DUP2 SUB DUP3 MSTORE PUSH1 0x12 DUP2 MSTORE PUSH1 0x20 ADD DUP1 PUSH32 0x44696E686569726F206465766F6C7669646F0000000000000000000000000000 DUP2 MSTORE POP PUSH1 0x20 ADD SWAP2 POP POP PUSH1 0x40 MLOAD DUP1 SWAP2 SUB SWAP1 REVERT JUMPDEST JUMP INVALID MSTORE8 PUSH16 0x6D656E746F206F206A6F6761646F7220 PUSH17 0x6F6465206368616D617220657374612066 PUSH22 0x6E63616F21536F6D656E746F206F20646F6E6F20706F PUSH5 0x6520636861 PUSH14 0x617220657374612066756E63616F 0x21 LOG2 PUSH6 0x627A7A723158 KECCAK256 MLOAD GAS DUP2 0xB0 SLT CODECOPY DUP14 NUMBER PUSH7 0x4A2A6E8C338329 SWAP10 DUP14 CALLDATASIZE 0x2E CALLDATASIZE 0xF6 PUSH7 0x4041D2D08AD716 SELFDESTRUCT SIGNEXTEND PUSH5 0x736F6C6343 STOP SDIV GT STOP ORIGIN "
		},
		"gasEstimates": {
			"creation": {
				"codeDepositCost": "666600",
				"executionCost": "infinite",
				"totalCost": "infinite"
			},
			"external": {
				"entraJogo(bytes32)": "infinite",
				"ownerReveal(bytes32,bytes1)": "infinite",
				"payWinner()": "3848",
				"playerReveal(bytes32,bytes1)": "infinite"
			},
			"internal": {
				"handleLimit()": "infinite",
				"payOwner()": "infinite",
				"payPlayer()": "infinite",
				"repay()": "infinite",
				"requireLessValue()": "infinite",
				"setValorAposta()": "infinite"
			}
		},
		"methodIdentifiers": {
			"entraJogo(bytes32)": "fb965090",
			"ownerReveal(bytes32,bytes1)": "e04a7f1e",
			"payWinner()": "be71248a",
			"playerReveal(bytes32,bytes1)": "ddea484f"
		}
	},
	"abi": [
		{
			"inputs": [
				{
					"internalType": "bytes32",
					"name": "_vD",
					"type": "bytes32"
				}
			],
			"payable": false,
			"stateMutability": "nonpayable",
			"type": "constructor"
		},
		{
			"constant": false,
			"inputs": [
				{
					"internalType": "bytes32",
					"name": "_vJ",
					"type": "bytes32"
				}
			],
			"name": "entraJogo",
			"outputs": [],
			"payable": false,
			"stateMutability": "nonpayable",
			"type": "function"
		},
		{
			"constant": false,
			"inputs": [
				{
					"internalType": "bytes32",
					"name": "nonce1",
					"type": "bytes32"
				},
				{
					"internalType": "bytes1",
					"name": "_v1",
					"type": "bytes1"
				}
			],
			"name": "ownerReveal",
			"outputs": [],
			"payable": false,
			"stateMutability": "nonpayable",
			"type": "function"
		},
		{
			"constant": false,
			"inputs": [],
			"name": "payWinner",
			"outputs": [],
			"payable": false,
			"stateMutability": "nonpayable",
			"type": "function"
		},
		{
			"constant": false,
			"inputs": [
				{
					"internalType": "bytes32",
					"name": "nonce1",
					"type": "bytes32"
				},
				{
					"internalType": "bytes1",
					"name": "_v1",
					"type": "bytes1"
				}
			],
			"name": "playerReveal",
			"outputs": [],
			"payable": false,
			"stateMutability": "nonpayable",
			"type": "function"
		}
	]
}